:1010000040DC0120A1700100D7FF06008D700100B7
:101010008D7001008D7001008D70010000000000D6
:101020000000000000000000000000001D72010030
:101030008D70010000000000B97101008D70010089
:10104000197401004D36070019740100197401006C
:101050001974010019740100197401001974010058
:101060006336070019740100197401003736070050
:101070001974010019740100197401001974010038
:101080001974010019740100197401001974010028
:101090001974010019740100197401001974010018
:1010A0001974010019740100197401001974010008
:1010B00019740100197401001974010019740100F8
:1010C00019740100197401001974010019740100E8
:1010D00019740100197401001974010019740100D8
:1010E00019740100197401001974010019740100C8
:1010F00019740100197401001974010019740100B8
:1011000080EA101404F0F01480EA0410604081EAD0
:10111000111404F0F01481EA0411614082EA1214FF
:1011200004F0F01482EA0412624083EA131404F01B
:10113000F01483EA0413634080EA102404F47F442B
:1011400080EA0420604081EA112404F47F4481EAAB
:101150000421614082EA122404F47F4482EA0422DA
:10116000624083EA132404F47F4483EA0423634047
:1011700081EA500404F0553480EA4400614083EA77
:10118000520404F0553482EA4402634082EA900437
:1011900004F0333480EA8400624083EA910404F06E
:1011A000333481EA84016340704700BF82EA9004CF
:1011B00004F0333480EA8400624083EA910404F04E
:1011C000333481EA8401634081EA500404F05534E9
:1011D00080EA4400614083EA520404F0553482EA14
:1011E0004402634080EA102404F47F4480EA04202F
:1011F000604081EA112404F47F4481EA04216140C3
:1012000082EA122404F47F4482EA0422624083EAE0
:10121000132404F47F4483EA0423634080EA101417
:1012200004F0F01480EA0410604081EA111404F024
:10123000F01481EA0411614082EA121404F0F014FF
:1012400082EA0412624083EA131404F0F01483EA81
:1012500004136340704700BF2DE9F14F94464FEAF5
:10126000930B8A68CB6808684968FFF749FF0BF160
:10127000060E33E083EA134480EA134582EA1347FB
:1012800046BA96EA3444604000F00F1684EA063409
:1012900020F00F1684EA161054BA94EA0106724040
:1012A00002F00F1486EA043622F00F1486EA1412B4
:1012B0004CBA6540694001F00F1485EA043521F00D
:1012C0000F1485EA14115CBA67407B4003F00F14D9
:1012D00087EA043723F00F1487EA1413BCE8F00000
:1012E0006040694072407B4000F0E03400F010350F
:1012F00000F00F3040EA540040EAC50080EA900454
:1013000004F0332480EA8400604001F0E03401F00E
:10131000103501F00F3141EA540141EAC50181EA7B
:10132000910404F0332481EA8401614002F0E03446
:1013300002F0103502F00F3242EA540242EAC502CE
:1013400082EA920404F0332482EA8402624003F0C9
:10135000E03403F0103503F00F3343EA540343EA5B
:10136000C50383EA930404F0332483EA84036340CF
:1013700081EA324787EA134581EA354690EA060456
:1013800084EA034B82EA1B4280EA044484EA05446F
:1013900083EA144A85EA14448BEA044B84EA37440E
:1013A00081EA0B4181EA164104EA0A00454082EADB
:1013B00004082BEA080041408AEA0B0602EA06000C
:1013C00084EA34438AEA3A4603EA0607784045400D
:1013D000414088EA38478BEA3B4007EA000985EA42
:1013E000090583EA0709464006EA0906714085EACD
:1013F000010005EA3546464006EA314181EA3041BE
:1014000081EA364606EA304686EA3546344008EA3E
:10141000010886EA01052A4086EA364003405A4020
:1014200081EA31431F407C4080EA030709EA07094B
:1014300088EA0908544088EA020806EA0A0601EA2E
:101440000B018AEA0B0215408AEA3A4210404540F5
:101450008BEA3B4003405E404240174079404D409C
:101460004E40E443F64386EA18435D4085EA054072
:1014700083EA134386EA034183EA384284EA11434C
:1014800083EA04435FEA3343BEF1010E3FF6F2AE56
:101490001ED4BCE8F0006040694072407B4020BC34
:1014A000FFF784FE28606960AA60EB60BDE8F08FFA
:1014B0002DE9E0414FF2F00280EA1031114080EA5C
:1014C0000130484041088208C3084FF0000E4FE742
:1014D00000F0113001F0113102F0113203F011333C
:1014E00040EA410040EA820040EAC3004FF2F002C5
:1014F00080EA1031114080EA01304840BDE8E081C7
:101500002DE9F04F02F11C050646074600EB850861
:1015100051F8040B043A46F8040BF9D14FF0010CD2
:10152000FFF7C6FF5FEA302080EA0C001ECF414083
:101530004A4053405C401EC62000464517D04FEA43
:101540004C0C1CF4807F18BFACF1E50C2C2DE7D0BF
:101550003C2D06D1FFF7ACFF06CF41404A4006C6FE
:10156000100006CF41404A4006C61000D8E736E9D1
:101570000F00FFF7C5FD043D86E80F00F7D1BDE879
:10158000F08F00BF2DE9F14F03F11C0402EB840C36
:101590004FEA930B8A68CB6808684968FFF7B0FD8B
:1015A0003CE9F0006040694072407B400BF1060E60
:1015B0004EE083EA134480EA134582EA134746BAB1
:1015C00096EA3444604000F00F1684EA063420F0B6
:1015D0000F1684EA161054BA94EA0106724002F01B
:1015E0000F1486EA043622F00F1486EA14124CBA5D
:1015F0006540694001F00F1485EA043521F00F14AD
:1016000085EA14115CBA67407B4003F00F1487EA47
:10161000043723F00F1487EA141344BA44404DBA38
:101620004D4056BA56405FBA5F4087EA174886EA8F
:10163000174B84EA17464FEA38488BEA1B4485EA81
:101640001B4788EA1B4580EA3440694072407B4072
:1016500000F0703400F0803500F00F3040EA4400B4
:1016600040EAD50080EA900404F0332480EA840044
:10167000604001F0703401F0803501F00F3141EA33
:10168000440141EAD50181EA910404F0332481EA5E
:101690008401614002F0703402F0803502F00F32B4
:1016A00042EA440242EAD50282EA920404F0332478
:1016B00082EA8402624003F0703403F0803503F064
:1016C0000F3343EA440343EAD50383EA930404F067
:1016D000332483EA84036340C943DB4381EA000483
:1016E00083EA044686EA020183EA014382EA33453B
:1016F00083EA14435C4084EA00077FEA040A8AEA2A
:10170000024A8AEA010B87EA11488AEA374A80EAE4
:10171000060181EA1A418AEA030A04EA0A004540FE
:1017200088EA040707EA0B0041408AEA0B0608EA48
:10173000060084EA34428AEA3A4602EA060358403E
:101740004540414087EA37438BEA3B4003EA0009C2
:1017500085EA090582EA0309464006EA090671405E
:1017600085EA010005EA3546464006EA314181EA4C
:10177000304181EA364606EA304686EA354634404C
:101780000F4086EA010508EA050886EA364002406D
:1017900088EA020881EA314213405C4080EA020391
:1017A00009EA030987EA0907674088EA040806EAA4
:1017B0000A0601EA0B018AEA0B0425408AEA3A4448
:1017C000204045408BEA3B4B02EA0B02564084EA3C
:1017D0000B04234059406E40694087EA364080EA56
:1017E000384080EA060380EA104481EA134585EA1E
:1017F000344585EA17427D4082EA354180EA05405A
:101800003CE9F0006040694072407B40BEF1010E4F
:101810003FF6CFAE20BCFFF7C9FC28606960AA6024
:10182000EB60BDE8F08F00BFFFF76ABE70B491E8CF
:101830007800B2E802105B1854EB0C04B2E8021016
:101840004D4156EB0C0680E878008041013070BCB9
:10185000704700BF70B491E87800B2E802105B1ADC
:1018600074EB0C04B2E802108D4176EB0C0680E8B4
:1018700078008041404270BC704700BF2DE9F007FE
:1018800091E80017C0CAA8FB063440F8043BA9FB46
:101890000615E8FB6741EAFB665140F8044BA9FBDB
:1018A0000743ECFB661344CAE8FB6254EAFB671487
:1018B000ECFB673440F8045BA9FB0275EAFB623578
:1018C000ECFB6245E8FB6617E9FB6637EAFB664717
:1018D000ECFB6657BAC0BDE8F00770472DE9F0078A
:1018E00091E8F807B2E802105B1854EB0C04B2E878
:1018F00002104D4156EB0C06B2E802104F4158EB76
:101900000C08B2E8021059EB01095AEB0C0A80E806
:10191000F80780410130BDE8F00770472DE9F00776
:1019200091E8F807B2E802105B1A74EB0C04B2E815
:1019300002108D4176EB0C06B2E802108F4178EB75
:101940000C08B2E8021079EB01097AEB0C0A80E886
:10195000F80780414042BDE8F00770472DE9F007E5
:10196000524290E87800B1E880071740DB1918EA86
:10197000020854EB080419EA020955EB09051AEAB2
:10198000020A56EB0A0678C090E87800B1E88007B2
:1019900017407B4118EA020854EB080419EA0209CF
:1019A00055EB09051AEA020A56EB0A0678C080418F
:1019B0000130BDE8F00770472DE9F007524290E88A
:1019C0007800B1E880071740DB1B18EA020874EBC7
:1019D000080419EA020975EB09051AEA020A76EB0E
:1019E0000A0678C090E87800B1E880071740BB414C
:1019F00018EA020874EB080419EA020975EB0905F4
:101A00001AEA020A76EB0A0678C080414042BDE835
:101A1000F00770472DE9F00152424FF0040890E8BA
:101A2000300091E8C000A31B1340E41AF618EB1B2A
:101A30001340ED1AFF1830C0C0C1B8F10108EED153
:101A4000BDE8F001704700BF00B592E8DC072DE962
:101A5000DC07B1E8805702B4A7FB02510A95A8FB46
:101A6000020BE7FB6310E9FB62B00B91A8FB03518B
:101A7000EAFB6201E7FB64B5E7FB6605E8FB661578
:101A8000CDF830B0A9FB03B6EAFB6316ECFB635656
:101A9000E8FB640BE9FB641BEAFB645BECFB646B37
:101AA0000D90ACFB0230059CEEFB6250E9FB6460DC
:101AB000EAFB64B0E7FB6431E8FB6451069CE8FB99
:101AC0006461E9FB64B1EAFB64010E93A7FB043295
:101AD000079CE7FB6462E8FB64B2E9FB6402EAFB93
:101AE0006412049CE9FB6453EAFB6463089CE7FB13
:101AF00064B3E8FB6403E9FB6413EAFB64230F951A
:101B00005DF8049B99E80006DDF80080A9FB085405
:101B1000EAFB68B4DDF81080ECFB6804EEFB6814A7
:101B2000E9FB6824EAFB6834DDF80480EEFB6865B5
:101B3000E9FB68B5EAFB6805DDF81480ECFB681585
:101B4000EEFB6825E9FB6835EAFB68450F96DDF892
:101B50000880AEFB0876E9FB6806EAFB6816DDF84C
:101B60001880ECFB6826EEFB6836E9FB6846EAFB6A
:101B70006856DDF80C80ECFB68B7EEFB6807E9FB04
:101B80006817EAFB6827DDF81C80ECFB6837EEFB82
:101B90006847E9FB6857EAFB686708B000BD00BF0B
:101BA0002DE9F14F87B0FFF74FFFDDF81C8008F1FA
:101BB000200888E8FF00FFBC87E87F08BDE8F08FB9
:101BC00000B591E89857A3FB03520195A3FB0401CC
:101BD000E3FB6420E3FB67100292A3FB0752E3FBE5
:101BE0006802E4FB6415E3FB6805E3FB69250391E8
:101BF000A4FB07B6E3FB6926E3FB6A56E4FB670B2D
:101C0000E4FB682BE3FB6A5BE3FB6C6B0490A4FBD7
:101C10000810E4FB6950E3FB6C60E3FB6EB0E7FB8C
:101C20006721E4FB6951E4FB6A61E3FB6EB1E4FB0D
:101C30006E010592A7FB0832E4FB6A62E4FB6CB21A
:101C4000E4FB6E02E7FB6E12E7FB6853E7FB696398
:101C5000E4FB6CB3E7FB6C03E7FB6E13E8FB6E235E
:101C60000695A7FB0954E7FB6AB4E7FB6C04E8FBA5
:101C70006C14E8FB6E24E9FB6E34E8FB6865E7FB57
:101C80006AB5E8FB6A05E8FB6C15E9FB6C25E9FB26
:101C90006E35EAFB6E450796A8FB0976E8FB6A06F7
:101CA000E9FB6A16E9FB6C26EAFB6C36EAFB6E463A
:101CB000ECFB6E56E8FB69B7E9FB6907E9FB6A17BD
:101CC000EAFB6A27EAFB6C37ECFB6C47ECFB6E57D0
:101CD000EEFB6E6700BD00BF2DE9F14F87B0FFF747
:101CE0006FFFDDF81C8008F1200888E8FF00FFBCCA
:101CF00087E87F08BDE8F08F30B44FF0000310F89C
:101D0000014B11F8015B013A84EA050443EA04033C
:101D1000F5D1A3F101034FEAD37030BC704700BF87
:101D20004FF0000310F8012B013943EA0203F9D107
:101D3000A3F101034FEAD370704700BF30B411F82C
:101D4000014B12F8015B6C4000F8014B013BF6D1EE
:101D500030BC70472DE9F00791E8F807B2E80210AF
:101D60005B1854EB0C04B2E802104D4156EB0C0624
:101D7000B2E802104F4158EB0C08B2E8021059EBE0
:101D800001095AEB0C0A8941B3F1FF3374F1FF34B6
:101D900075F1FF3576F1000677F1000778F100085C
:101DA00079F101097AF1FF3A51F100015B184C41D8
:101DB0004D4156F1000657F1000758F1000859EB64
:101DC000D1795AEB010A80E8F807BDE8F0077047BF
:101DD0002DE9F00791E8F807B2E802105B1A74EBFE
:101DE0000C04B2E802108D4176EB0C06B2E802104A
:101DF0008F4178EB0C08B2E8021079EB01097AEB1D
:101E00000C0A89415B184C414D4156F1000657F1CF
:101E1000000758F1000859EBD1795AEB010A80E824
:101E2000F807BDE8F007704718EB040859EB0509FF
:101E30005AEB060A5BEB070B5FF0000C4CF1000C51
:101E400018EB050859EB06095AEB070A5BEB070B81
:101E500050EB0C005FF0000C51EB0C0152EB0C024C
:101E600063414CF1000CB8EB070879F100097AF1F5
:101E7000000A7BEB040BA841B141A241B3416CF1D4
:101E8000000CBBEB050BB041B941AA41BB416CF161
:101E9000000C4CF001068CF0020718EB060859EB19
:101EA0006C095AEB6C0A7BEB6C0B70EB6C0471EBFE
:101EB0006C0572EB670653EB6C076CEB6C0C18EB64
:101EC0000C0059EB0C015AEB0C025BF1000354F1CE
:101ED000000455F1000556EBDC7657EB0C07704714
:101EE0002DE9F14F87B0FFF7AFFDDDF81080DDF889
:101EF0001490DDF818A0FFF797FFBDE8000FFFF77B
:101F000093FF03B05DF8048B88E8FF00BDE8F08F15
:101F10002DE9F14F87B0FFF753FEDDF81080DDF8B3
:101F20001490DDF818A0FFF77FFFBDE8000FFFF762
:101F30007BFF03B05DF8048B88E8FF00BDE8F08FFD
:101F40002DE9F14FF8C892E8005E19EB03095AEB4E
:101F5000040A5BEB050B5CEB060C4EEB070E91E8FD
:101F6000E001A9FB0502AAFB0543E9FB6624EAFBA5
:101F70006634A9FB0765E9FB6845B1E80003EBFBA4
:101F80006836ECFB6846EEFB6856ABFB0987ECFB5A
:101F90006957EEFB696791E80202EAFB6148EBFBD7
:101FA0006158ECFB6168EEFB61784FF00001EAFBE1
:101FB0000951EBFB6961ECFB6971EEFB69814FF440
:101FC000A03C4FEA154949EA06495FF0000AE9FBDF
:101FD0000C0A4FEA164646EA0746E6FB6C2A4FEA29
:101FE000174747EA0847E7FB6C3A4FEA184848EAC0
:101FF0000148E8FB6C4AADB25544AF0805F0030553
:1020000007EB8707C01952F1000153F1000254F1A8
:10201000000345F1000420BC1FC5BDE8F08F00BFE0
:1020200030B490E83C10511D53F1000154F100010F
:1020300055F100014CF100014FEA9101494201F0D4
:102040000501521853F1000354F1000455F1000545
:102050004CF1000C0CF0030C80E83C1030BC7047D5
:102060002DE9F04F90E8F00F00F140004FF0040E22
:1020700059E0F0B4826BC36B0468052524268759A8
:102080003C444FEA724787EAF24787EA92273C448A
:1020900042684FEAF21787EAB24787EAD2073C4420
:1020A00040F8044B032D08BF6FF01B0687593A44D4
:1020B0004FEA734787EAF34787EA93273A4443682E
:1020C0004FEAF31787EAB34787EAD3073A4440F861
:1020D000042B87593B444FEA744787EAF44787EA61
:1020E00094273B4444684FEAF41787EAB44787EAE9
:1020F000D4073B4440F8043B013DC0D1A0F13C0073
:10210000076A3C444FEA724787EAF24787EA922718
:102110003C4402684FEAF21787EAB24787EAD207DF
:102120003C44C463F0BC4FF0020288EA781C8CEA9D
:10213000F84C0BEBBC1C8AEA090303EA080383EAA8
:102140000A039C4450F8043B9C4451F8043B9C44D3
:10215000674444EA050B0BEA060B04EA05034BEA65
:10216000030BE34484EAF42383EA34530BEBB30B0D
:1021700087EA771C8CEAF74C0AEBBC1C89EA080357
:1021800003EA070383EA09039C4450F8043B9C4498
:1021900051F8043B9C4466444BEA040A0AEA050AE7
:1021A0000BEA04034AEA030AE2448BEAFB2383EACC
:1021B0003B530AEBB30A86EA761C8CEAF64C09EB31
:1021C000BC1C88EA070303EA060383EA08039C446D
:1021D00050F8043B9C4451F8043B9C4465444AEA53
:1021E0000B0909EA04090AEA0B0349EA0309E14475
:1021F0008AEAFA2383EA3A5309EBB30985EA751CA4
:102200008CEAF54C08EBBC1C87EA060303EA0503DD
:1022100083EA07039C4450F8043B9C4451F8043B78
:102220009C44644449EA0A0808EA0B0809EA0A03DC
:1022300048EA0308E04489EAF92383EA395308EBC2
:10224000B30884EA741C8CEAF44C07EBBC1C86EAE5
:10225000050303EA040383EA06039C4450F8043BA5
:102260009C4451F8043B9C44E34448EA090707EACC
:102270000A0708EA090347EA0307674488EAF823DC
:1022800083EA385307EBB3078BEA7B1C8CEAFB4CE1
:1022900006EBBC1C85EA040303EA0B0383EA05038F
:1022A0009C4450F8043B9C4451F8043B9C44E24459
:1022B00047EA080606EA090607EA080346EA0306AB
:1022C000664487EAF72383EA375306EBB3068AEAC4
:1022D0007A1C8CEAFA4C05EBBC1C84EA0B0303EA7B
:1022E0000A0383EA04039C4450F8043B9C4451F8DD
:1022F000043B9C44E14446EA070505EA080506EA72
:10230000070345EA0305654486EAF62383EA365364
:1023100005EBB30589EA791C8CEAF94C04EBBC1C8B
:102320008BEA0A0303EA090383EA0B039C4450F88F
:10233000043B9C4451F8043B9C44E04445EA0604B9
:1023400004EA070405EA060344EA0304644485EA50
:10235000F52383EA355304EBB304013A7FF4E5AE89
:10236000A0F14000BEF1010E7FF483AEA0F1400C5D
:102370009CE80F00001949199219DB19ACE80F000D
:102380009CE80F004044494452445B44ACE80F00D1
:10239000BDE8F08F2DE9F04FB0E8FE0783B02DE9DE
:1023A000010790E8005F4FF00A0006900198DB19E2
:1023B0009CEA030C18EB3C4897EA080713EB3753E9
:1023C00093EA3C4C18EB3C6898EA375724189EEA8D
:1023D000040E19EB3E4990EA090014EB305494EADC
:1023E0003E4E19EB3E6999EA3050CDE90489DDE9AA
:1023F000028949199AEA010A18EB3A4895EA080550
:1024000011EB355191EA3A4A18EB3A6898EA35559A
:1024100092199BEA020B19EB3B4996EA090612EB6B
:10242000365292EA3B4B19EB3B6999EA365613EB6D
:10243000706393EA3B6B18EB3B4898EA706013EBD0
:10244000305393EA3B4B5FEA3B6B18EB0B0898EA7F
:1024500030505FEA706014EB756494EA3C6C19EBE1
:102460003C4999EA756514EB355494EA3C4C5FEAB3
:102470003C6C19EB0C0999EA35555FEA7565CDE9B5
:102480000289DDE9048911EB766191EA3E6E18EB71
:102490003E4898EA766611EB365191EA3E4E5FEA85
:1024A0003E6E18EB0E0898EA36565FEA766612EB37
:1024B000776292EA3A6A19EB3A4999EA776712EB3E
:1024C000375292EA3A4A5FEA3A6A19EB0A0999EAFC
:1024D00037575FEA77670190069801387FF465AF58
:1024E00001BC80E8005FBDE8000700E9FE0703B01B
:1024F000BDE8F08F064B074A5B7802604FF422720A
:102500008280C3710822002382710372704700BF6A
:10251000E0160020BDF00000064B074A5B7A02601F
:102520004FF49C728280C3710822FF238271037270
:10253000704700BFE0160020D1EB0000F8B5C41DC5
:10254000002824F00704054614BF2046002000F0B0
:10255000D1FA071E02DA6FF00B00F8BD254EB188E4
:102560007088F379B2790331033089B280B20AF00E
:1025700095FC0028EFDB737831783C440334194430
:10258000002D24F0030400FB01F114BF20460020BD
:1025900000F034FC23180DB9002BDCDB717A1846EF
:1025A00079B10333002D23F0030414BF204600202B
:1025B000728900F095FC0028CDDB20440DB900287D
:1025C000C9DB317A91B1737A83B1C41D002D24F037
:1025D000070414BF2046002002F0DAFF0028BADB0F
:1025E0000DB10020B9E72018B7D5B4E7002DF8D118
:1025F000B3E700BFE01600201FB572B6194BDD68C7
:10260000EDB9BFF34F8F1849184BCA6802F4E06266
:102610001343CB60BFF34F8F00BFFDE72346B2FBF0
:10262000F6F25C1C002AF9D104AEDCB256FA83F350
:1026300003F80C2C0A2234B901A8A847E1E70246A6
:1026400000230A26EDE7631E04AEDCB256FA83F3DC
:10265000B0FBF2F602FB1600303003F80C0C3046EB
:10266000E9E700BFE016002000ED00E00400FA05F5
:1026700007B50A4BDA88ADF8002068469A885B886F
:10268000ADF80420ADF8023001F012FD18B1FC21C4
:102690009C20FFF7B1FF03B05DF804FBE0160020BB
:1026A00010B5044628B309F09BF910B94FF0FF307C
:1026B00010BD06F035FFB0F5FA7FF7D80E4B0022BB
:1026C0001A744FF480721A801B225A809A8040F24A
:1026D0000322DA804FF484721A811F22DC605A814F
:1026E000EFF3108472B600F059FC04B962B6002012
:1026F000DEE76FF01500DBE7E016002010B50028DC
:1027000040D1234C237C032B39D059B1002A3CD033
:102710000239052936D8DFE801F0031227352A2DC2
:10272000137863700020FFF709FF0028B7BF01236B
:10273000022323746FF00B00A8BF237410BD13791C
:102740001BB353790BB31188FB291ED853881B3B4D
:102750009BB2E02B19D81A2917D91368C4F8023094
:102760000C4B92889A80DDE713786372DAE713885E
:102770006381D7E71388FF2B07D82372D2E74FF086
:10278000FF30DBE76FF02C00D8E76FF01500D5E7DE
:10279000E0160020E2160020F8B50D46064620B3EC
:1027A00019B311F0070420D1114F3B7C012B02D14A
:1027B0006FF00B00F8BD032B02D14FF0FF30F9E7AB
:1027C00000F060F80028F8D02846FFF7B7FE002890
:1027D000EEDB0CF0CFFC3046214601F0DDFCFFF7CC
:1027E00047FF03233B742046E4E76FF01500E1E761
:1027F000E016002010B5064C237C032B03D101F01A
:10280000E1FC02F053F90AF053FC0020207410BDE3
:10281000E016002050B1074B03F1140253F8041BDB
:1028200040F8041B9342F9D1002070476FF0150067
:10283000704700BFCA030A0008B501F079FCBDE883
:1028400008400249012000F04DB900BF19250000E1
:1028500008B501F081FCBDE808400249002000F005
:1028600041B900BFF5240000024B02681A60002045
:10287000704700BFF4160020014B1B68184700BFCB
:10288000F4160020024B1868003818BF012070476A
:10289000F41600202DE9F743264E0446071D25486F
:1028A000376002F01BF90228054607D1214920466E
:1028B00009F015FF284603B0BDE8F0830428F9D1DC
:1028C0003378072B18D13E2000F04AF878B9F37816
:1028D000327901A943EA02236846ADF800300AF0D4
:1028E000DFF80028DBD053210820FFF785FE052004
:1028F00000F07AF80028EAD03146204609F01EFFA1
:10290000B0F5817F01D37221EEE70028C7D094F89B
:10291000008094F80290404600F022F80028BED0D3
:10292000B8F13E0FC6D1484600F05EF80028C1D18C
:10293000B5E700BFF8160020074B4FF0FF3141F616
:10294000FF72C3E9001205490022C1E900221F21DC
:10295000C3E90212704700BFC00400203C170020EA
:102960003F280CD801380B4BC0F3421200F01F0077
:1029700053F8223023FA00F000F001007047FF28DE
:1029800006D04038C0F34212034B00F01F00EFE7BF
:1029900001207047C00400203C1700200146074B6F
:1029A000006849681A4603C240F48C221A6041F05C
:1029B000107242F4FF625A6000207047C004002089
:1029C0000246034B0068516803C30020704700BFF4
:1029D0003C1700200246034B0068516803C30020E7
:1029E000704700BFC8040020382800F1FF33DBB275
:1029F0001FBF064A590902EB810203F01F031DBFE6
:102A00009068D84000F0010000207047C00400200A
:102A1000F0B50C88C37C0288A5B2C4F30E0404F19F
:102A200018060233865B1A44334497B213FA82F3D2
:102A3000013B4288B3FBF7F313FB07439BB29A4277
:102A4000044A93BF22EA05032A4013439BB20B803A
:102A5000F0BD00BF0080FFFF4A1E062A08B50346EE
:102A6000084604D84FF4D1711520FFF7C5FD094A77
:102A7000914202D940F2A311F6E711B903B11960EE
:102A800008BD2BB11B680022C3E901211A1D1A6081
:102A90000430F5E7FAFFFF7F10B5114B00EB41045E
:102AA0001A786389B3FBF2F303FB0223013A1A4459
:102AB000B2F5706F0279807828BF00231A440B1892
:102AC000B2FBF0F100FB11215B1AB3FBF0F100FB4C
:102AD000113313446FEA43436FEA5343638110BDDC
:102AE00044170020024B03EB80035960704700BF7E
:102AF000441700202DE9F04F10F0070A85B0054675
:102B000004D040F261111720FFF776FD524F07F114
:102B10000C06B1460446B04657F8043B8DF80BA0AE
:102B20003BB101A898479DF80A30082B01D9E8214C
:102B3000E9E79DF80B1041BB05B131604F4506F147
:102B40000406E9D1002D6FD0DFF81091002289F83A
:102B500000209646022758F827A0013FBAF1000F3F
:102B600055D09AF804609AF802C0FF2E60D039461A
:102B70000023481C38D19C44BCF1FF0F3FD90AB157
:102B800089F800E040F22711BDE79DF80AC06046D1
:102B9000022838BF02204B1D5A0004EB4303441E99
:102BA0002344BDF808406444013CCCF1000C04EA25
:102BB0000C044042B4F5803F03EA000301D3F8213E
:102BC000A1E775B19A1A0120326091701480D0701B
:102BD0009DF80C001071019810814FEA104CA2F87A
:102BE00006C004FB0134A9E758F8210028B190F889
:102BF00004B0B34504BF80781B180139B9E7DBB2D4
:102C0000E6458AF804303CBF5FFA8CFE01227B1C4B
:102C1000A1D10AB189F800E0022640F6FF6A58F80F
:102C20002670B7B9013EFAD2601B05B0BDE8F08F3F
:102C30000023E5E707EB41033846A3F80AA0FFF7B6
:102C40002BFF09F10109BB785FFA89F18B42F1D8BA
:102C5000E8E74FF00009F6E7481700204417002086
:102C600038B54FF6FF730380184B03EB8103024620
:102C70001869A8B184780379B3FBF4F104FB11332C
:102C8000DBB2194600EB4105B5F90A50002D0EDB09
:102C90000131B1FBF4F504FB1511C9B28B42F1D13E
:102CA000002038BD6381BDE838400AF0D3B800EB9E
:102CB00041046389C3F30E031380C278002AF1D163
:102CC0004FF4D5711720FFF797FC00BF4417002081
:102CD0001C4B03EB810370B51C69054644B3030428
:102CE00004D54FF4DC711720FFF786FC014620461F
:102CF0000AF092F8FF28014604D02046BDE8704053
:102D00000AF0A8B8A078B5FBF0F300FB1353DBB2D0
:102D100019460A1D04EB4206B6F90260002E09DBD3
:102D20000131B1FBF0F200FB1211C9B28B42F0D1BC
:102D3000002070BD8B4201D00023E37004EB4202FF
:102D40005580DAE744170020094B03EB810310B5E7
:102D50001C69014620460AF05FF8FF28014604D0AE
:102D60002046BDE810400AF075B8002010BD00BF35
:102D700044170020F8B5104B03EB810307461C698C
:102D8000014620460AF048F8FF28054611D0E2889F
:102D9000238953EA024606D0014620460AF05AF833
:102DA00001463846B04720462946FFF775FE002009
:102DB000F8BD0520FCE700BF4417002038B50E4BD6
:102DC000827903EB82030446186908B9052038BDEF
:102DD0008278E1799142F9D24B1CE37100EB410317
:102DE0005D89B3F90A30002BF3DBA5800AF032F8D5
:102DF00020600020EBE700BF4417002070B50446B8
:102E000010F003000E4603D04E211820FFF7F4FB0C
:102E1000FFF722FE054624B1034831460460FFF760
:102E20001BFE284670BD00BF601700202DE9F14F42
:102E3000DFF870B09DF828A09DF82C901E46DBF8B6
:102E4000003007460D4690461BB960211820FFF759
:102E5000D3FB52460921404609F063FE4A4684B23C
:102E60000921304609F05DFE14FA80F1DBF800001C
:102E700009F0A6FF386018B9286001B0BDE8F08FEE
:102E800004442C60386853464146092209F00CFE80
:102E900028684B460922314601B0BDE8F04F09F0E1
:102EA00003BE00BF6017002070B50E46044609F04F
:102EB0004BFE0546304609F047FE044B2A182146D2
:102EC0001868BDE8704009F0A0BF00BF601700207F
:102ED000024B186808B109F067BF704760170020FF
:102EE0001F2AF8B5044626D804200323134D12FBED
:102EF000003254B1A30703D068210920FFF77CFBFF
:102F000022F0030329706C602B8122F00302282336
:102F1000120403FB01F001276B68120C0025EEB2CE
:102F2000B14200D8F8BD14B126181F705E6010447D
:102F300001352833F3E74FF0FF30F3E76417002043
:102F400070B5154A157853680021C8B2854203D878
:102F5000BA210920FFF750FB1C46184614F8286BCD
:102F600001310EB92346F0E7002199701289996169
:102F70000124D96159685C70920803F11E0403F1C1
:102F8000260524F8022FAC4243F8041F1144F8D15F
:102F900000234361037070BD64170020134B0122AE
:102FA00000214FF0FF309A60C3F80012C3F8080305
:102FB000C3F80015C3F804259A60C3F80803C3F8E2
:102FC0000015C3F804250A490A4A03F580334FF473
:102FD0000040C3F80825C1F88000BFF34F8FBFF34E
:102FE0006F8FC1F88001C3F80825704700F00040DA
:102FF00000E100E00000F63F0A46192302F8033B17
:103000000448C368C1F8033003695360436993609F
:10301000704700BF70170020024B5A8C02435A843D
:103020005B6A184770170020014B00215B6A184744
:103030007017002010B5154C05F082F905F034FD2D
:10304000208DFFF7F1FF237E63B12246104952F82D
:103050000C3BE3606368536004F11900A36893605C
:103060000AF0D1FF0B4B228D93E8030002F0C0FA67
:10307000236B188802F042FAA36B94F8341094F88A
:1030800035009847002384F83C3010BD70170020AD
:10309000F92F00009C170020034B93F83C300BB134
:1030A000FFF7C8BF704700BF7017002070B51B4CFA
:1030B000256B236D23644FF481730646A4F84430D6
:1030C00094F8540095F88B3095F8691000EB830064
:1030D0002EB9FF2803D195F868308B4201D004F057
:1030E000CBFF95F88B309BB1A06D05F0C9F9A16DB0
:1030F000206C05F0B5FC16B9304605F015FA95F8C8
:103100006810002005F064FA022384F83C3070BD9A
:10311000206C05F0B5F905F0C7FCECE7701700204E
:1031200008B5094B93F83C20022A04D040F2AE21A6
:103130002720FFF761FADA7A42F00102DA72BDE87D
:103140000840FFF777BF00BF70170020F7B5184C95
:10315000E56D06460DB1A36C23B940F289712720B5
:10316000FFF74AFAB4F84C306B702B782F4601F019
:10317000030123F003030B4307F8033BB4F84C208F
:10318000A16C384608F0C2FE0DF1020201A9206EC2
:103190002564A76409F0FEFD019809F0E9FDB4F883
:1031A0004C1030600122206E09F091FD03B0F0BD9B
:1031B000701700202DE9F043354C94F83C30012B7A
:1031C00087B006460F465FFA83F804D040F2D1710B
:1031D0002720FFF711FA256B95F87C303BB10021D1
:1031E00085F87C100420FFF717FF85F87D8095F89F
:1031F0008030042B0AD127490220FFF70DFFE36E30
:103200001B78991E4B424B4184F8743095F88B30F3
:10321000BBB1236B93F8690009F04CFF0023D5E99B
:103220003A89CDE9030394F854300293012005F55F
:1032300080730193009042464B4605F1F00105F082
:103240006DFB26B107B0BDE8F043FFF7F3BE002FDA
:10325000F8D0A36F304698470028F3D094F8343064
:10326000002BEFD1638C9A0709D594F87430002BAA
:10327000E8D0002007B0BDE8F043FFF717BF002BF0
:10328000E0D194F87C30002BF3D194F87D30EEE758
:1032900070170020DC1700202DE9F04FB24C8FB0E2
:1032A0000023CDE90B3394F83C30256B0690022BBC
:1032B00008915FFA83FB04D04FF407612720FFF7E2
:1032C0009BF9236C93F800A00AF0030209925A7844
:1032D000A4F84C2003221344A4F84420069AA364C3
:1032E00095F88B30002A00F02E81CAF3C007C3B1D5
:1032F00005F0F2FB831EDBB2012B04D8FFF79AFE28
:103300000FB0BDE8F08F60B9B4F84C304BB195F810
:10331000823003F00103BB4203D1012384F835302E
:10332000ECE7B4F84C1019B1206E09F0B0FC01467E
:1033300095F88120238DE1650132D2B282EA9A08A4
:1033400043F4007318F0010823856FD0069B95F8AD
:103350008220079302F001039F4200F0A68000271D
:1033600095F88A30ABB195F8680009F0A3FED5E96D
:10337000388903460020CDE90330FB23029305F58D
:103380008073CDE9000342464B4605F1F00105F09C
:10339000C5FAE36D002B40F0E580B4F84C30B3FA89
:1033A00083F35B0903EA1A1384F87D30089B002B32
:1033B00040F0E080628C94F88A30110704D594F8CC
:1033C0007420002A40F0D680012B00F2D380A36F36
:1033D00001209847002800F0CD8094F83480B8F19F
:1033E000000F40F0C780266B94F8542096F88B00AD
:1033F00096F868108DF8298002EB8002FF2AADF85C
:103400002A8003D196F869208A4202D0FF2004F076
:1034100033FE96F88020052A00F2E381DFE812F0FF
:103420000101BB01BF01BF01D101D10195F880307D
:1034300053B3013BDBB2042B85F881200ED84B4AF5
:10344000D35C002B82D0022B0BD1D4F884000BA9C3
:1034500009F0C6FB88B940F299612FE74FF4CF61BC
:103460002CE7032B10D100F065FF10B940F2A361E7
:1034700024E741460820FFF7CFFDD5E93832013374
:1034800042F10002C5E9383295F87D30002185F817
:10349000801023B185F87D101020FFF7BDFD238D2E
:1034A00043F400632385002351E7B4F84C30F3B1B3
:1034B0000AF003010139012919D8218D41F4805105
:1034C000218594F88810994206D294F8343043F05C
:1034D000100384F8343042E7E16D00293FF43FAF38
:1034E00094F8891019B12020FFF79EFD37E70132CB
:1034F00085F882200AF00302032A19D0013A012A32
:103500000BD8002B3FF42BAFD5E93A32013342F10F
:103510000002C5E93A32069F22E7002B3FF41FAFB5
:10352000D5E93A32013342F10002C5E93A3216E7F1
:10353000238D0F49012043F4805385F87C002385B7
:10354000FFF76AFDECE70BB105F002FB94F88A3057
:10355000013384F88A30238D002743F48063238568
:103560000797FDE601231DE77017002018DF08000C
:10357000B817002005F038F8002F4DD1012308932B
:10358000A34C238D5A0606D44020FFF74DFD238D12
:1035900043F040032385079B6BB1B4F80720B4F8D0
:1035A00005301343B5F87E2013431EBFB4F809302D
:1035B0000133A4F80930069B002B00F02281B4F8F7
:1035C00005300133A4F80530002384F88A3091488F
:1035D00001F082FF0B9830B109F0CAFB216B002289
:1035E000027201F06BFB0C9B33B1216B00221A724B
:1035F0000C220C9801F030FB089B002B7FF47EAE70
:10360000238D1B063FF57CAE8020FFF70DFD238D3B
:1036100043F08003238573E609990CA8FFF796FD14
:10362000ACE794F88B20A6F858200DF12A010DA8DC
:10363000ADF82A2000F070FE40B10D9830B10122A3
:1036400084F88C20042286F8802021E096F8C3209C
:10365000002A40F09780D4F884000DF129020DF182
:103660002A0109F098FA002800F08C80BDF82A2081
:10367000002A00F084809DF82920002A79D1028058
:1036800082704FF0030B86F880B0012284F88C2002
:10369000BDF82A206066A4F8702002B1C21C96F81A
:1036A00080B096F8819096F882A0E266BBF1020F96
:1036B0000AD0ABF1040BBBF1010F00F29580127838
:1036C000022A4FF0030B0FD0D4F8840009F0BEFAA1
:1036D000002840F08C80BBF1030F05D000F036FECF
:1036E00080F001085FFA88F8616E0A784FEAC9092C
:1036F00009F0080902F0F3024FEA8A0A42EA0902D5
:103700000AF0040A42EA0A0222F0100242EA08120F
:1037100022F003024BEA020B81F800B0B4F87020EB
:103720004A700221A4F8681096F88A1008F001087F
:1037300084F87C80DFF8D88000295BD0002A59D03B
:10374000A06D04F09DFE616EA06D05F04FF996F836
:103750006910012004F03CFF012388F88D3088F8BF
:103760003C30002F3FF40CAF09990CA8FFF7EEFC9A
:1037700006E7027802F00302012A84D181E74FF0C4
:10378000010B80E70022ADF82A20012286F8802074
:10379000214800227EE70022ADF82A20F8E7B6F89B
:1037A0005820ADF82A20D4F884000DF129020DF13B
:1037B0002A0109F0F0F900287FF467AF40F2CD410B
:1037C0007CE50DF12A010DA800F0A6FD08B10D98C9
:1037D00010B940F2DA4171E5012284F88C2005220B
:1037E00031E740F2E24169E54FF0010B6CE74FF041
:1037F000010879E7D8F8640004F042FE05F054F9B6
:10380000A5E7B4F807300133A4F80730DFE600BFBE
:10381000701700209C170020EE17002010B5064BF3
:1038200093F83C2002F0FF0422B91C7601F0D8FE88
:10383000204610BD0C24FBE770170020094B0A4AF4
:1038400010B51A60FFF7EAFF20B140F243112720BC
:10385000FEF7D2FE00F0C6FC044C206500F0C6FC6A
:10386000A06510BD08050020843A000070170020F4
:103870002DE9F043774C89B006AE86E8030094F852
:103880003C10109F01F0FF0511B90AB103B127B92F
:103890004FF4EC712720FEF7AFFE96E8030004F129
:1038A0002C0C8CE8030084F8345084F88A5084F897
:1038B000355084F88D5084F88C506584258584F8C3
:1038C0007C5084F87D5084F874506566E566A4F8F1
:1038D00070502564A564A4F84C50256BA3679DF82F
:1038E000443084F889306262A76304F007FC05F075
:1038F000DBF895F9700004F08FFC6E6AE86904F05B
:1039000091FC304604F0AEFD95F89B0004F094FC69
:10391000236B93F89F310BB104F0DEFB0AF072FECB
:1039200095F8692000F17901012004F0F5FC4A4B7B
:10393000186804F09DFD2B69C4F884306B69236618
:10394000236B93F8852093F86860A2F12501012983
:1039500003D993F88610252962D193F85E322BB1F2
:10396000012E03D0012B0CBF0126022605F13007E2
:10397000314638460AF084FB31460AF040F9AB8FF5
:1039800095F86910834228BF0346384684F88B3087
:103990000AF066FB95F88B7095F86910B5F84460ED
:1039A0000AF02DF90FB9043080B2864228BF0646CE
:1039B00095F88B30F6B284F8886084F85460A3B12F
:1039C00095F8690009F076FBD5E93A890023CDE93D
:1039D000030305F58073012001930296009042468F
:1039E0004B4605F1F00104F099FF0120FFF75EFB63
:1039F000236BD3F8B00104F05FFD00232360636004
:103A0000A360B5F87E3063802B88238095F89B30C7
:103A10002371EB6E0BB101221A6009B0BDE8F0838F
:103A2000203A012A0DD823290DD093F8263113F01E
:103A3000010202D19B0799D50222012E18BF16461A
:103A400094E7232992D193F8262193F8613013400B
:103A5000EDE700BF7017002008050020014B93F828
:103A60008D00704770170020024B93F82900C0F3B7
:103A7000C000704770170020014B93F88A00704710
:103A8000701700202131000099320000B53100008C
:103A900099300000F0B5070CA7F5AA42144B543A30
:103AA000012A03EA90231FD927F4004042F6AA22F4
:103AB000801A18BF01200022162116461F2487EA0B
:103AC000060562EA0505013510D0DD03ADB245EA11
:103AD0005606E503ADB2013945EA52024FEA5303F7
:103AE0004FEA5404EBD1F0BD0020E4E70020FAE7F0
:103AF000E0FF3F0010B501210020FFF725F9044643
:103B000070B90121FFF7E4F8044620B940F273319F
:103B10003920FEF771FD034B93F906100BF02AF8DC
:103B2000204610BD00180020024B987DC04300F0D5
:103B300001007047241C002008B509F0E3FF00F0E5
:103B400049FD00F073FB0AF036FA01F033FD03F093
:103B500031FF094B00221A60084B1B214FF4A4705F
:103B600098801A805980064B064818605A829A75C8
:103B700099805A749A8208BD0C0500200018002014
:103B8000241C002003021B00044B41F64C52C3E9E5
:103B900002221B221A74FFF7CFBF00BF241C002093
:103BA00073B5244DAB680363234B836104460AF06D
:103BB00071FE064600F02AFB830654BF1B236B8868
:103BC000A4F85A3058BF1A461C4B297C1B6848BFC2
:103BD000AA88A4F85C2084F8381066871BB194F991
:103BE000701020889847164E204631460AF016F885
:103BF00001236A886978E385AB88019116F8121C65
:103C00000091033303329BB292B204F1140104F128
:103C10001000FFF70BF9236923B940F2E561392061
:103C2000FEF7EAFC636913B940F2E661F7E70020AA
:103C300002B070BD241C002000093D0010050020CA
:103C4000361C0020024B1B6803B118470C2070473C
:103C50000C050020034B5A8802801B7883700020DB
:103C6000704700BF241C002037B583781A2B054607
:103C700008D8042B04D9144A22FA03F3DB0705D42D
:103C800012241AE0292B01D03B2BF9D12888B0F55A
:103C9000706FF5D2694609F075FF88B9019B93F8FA
:103CA000182102F0FF046AB9AA7883F81921FF22CB
:103CB00083F81821684609F0CBFA204603B030BDDE
:103CC0000224FAE70C24F8E72000380438B502781B
:103CD000447802F0010354EA030102F0020201D128
:103CE000112038BDBAB98578002DF9D0002B18BF46
:103CF000002400E01D46204609F0ECF90028EFD032
:103D0000284609F0E7F90028EAD0054B00209C740A
:103D1000DD749882E5E7002BECD000242546EAE725
:103D2000241C002013B50088694609F000FAE8B1A8
:103D3000019890F82A311BB13A24204602B010BDF8
:103D400090F8CE3003F0FF04002BF5D190F8C53089
:103D50009B0706D1FF2380F82A31684609F078FADC
:103D6000EBE70349C6300AF04EF9E6E70224E4E740
:103D700077E50000F7B50778EF2F05460C460FD81A
:103D800090F901204378002A0ADB8278900707D156
:103D900013F010001DD1990603F0030202D51AB1E9
:103DA000122442E0032AFBD01E07F9D42979EA78CD
:103DB000EE7942EA0122697942EA0142A97941EAAF
:103DC00006212E7A41EA06418A42E9D81F2A0FD8F5
:103DD000E6E713F0600FE3D103F00702052A05D0F0
:103DE00003F00F010D22CA40D107D9D51A07DDD53E
:103DF0006A7A013A062AD3D8AA7A032AD0D813F0CD
:103E0000040102D1023A012A03D8EA7A012AC7D86A
:103E100011B9AA7C032AC3D82A7D48B1012ABFD18F
:103E20002A7E012ABCD830B91124204603B0F0BD47
:103E3000022AF5D1B4E7DB0712D46B782A7D03F0B0
:103E40001803082B11D1022AEED101213846FEF7C2
:103E50007BFF064678B10AF041FEB8B10C24E4E7D6
:103E600000F094F90028E8D1DEE7022AEDD02B7F9C
:103E7000002BEAD0D8E701213846FEF729FF064695
:103E800040B3154B93F906100AF074FE30460AF061
:103E900061FF29462070E87430460AF0B1FEEB7EDF
:103EA0000446002BC1D00028BFD1B16A0246684643
:103EB00009F00BF8B06A2246012109F052F8B16A04
:103EC0006846042209F001F8B06A2246214609F04A
:103ED00048F8AAE70724A8E70018002030B50279BF
:103EE000042A8BB003464FD84088B0F5804F4BD89A
:103EF00026498D5C114400244A79ADF8004042F017
:103F0000100242EA45028D7AC97B8DF8084042EAE8
:103F1000850242EAC10202F01F028DF80020BDF8BE
:103F20000020ADF809201A888DF80B208DF80E00BE
:103F3000120A000A8DF80C208DF80D408DF80F0044
:103F40008DF810405A7B8DF811205A798DF8122087
:103F50009A79D3F807008DF81320B3F80B209B7BD8
:103F60008DF81A307F2305908DF81B3069464FF08D
:103F7000011302A8CDE90734ADF818208DF82440CC
:103F8000FFF7F8FE0BB030BD1220FBE71DDF080085
:103F9000F7B50646FFF7AEFD04460AF0E6FE3378B5
:103FA000012B054661D120460AF017FE00287BD080
:103FB00020460AF0DAFE18B115B9122003B0F0BDA0
:103FC00020460AF08BFD08B10C20F7E720460AF0E6
:103FD000C2FD07460028F7D1204602F07BFC0028EE
:103FE000EBD0ED0142F2107339462046ADB25D438D
:103FF0000AF0A7FE20460AF0B0FE014658B92A464C
:10400000204601F06DFE08B90020D7E741F6774160
:104010003920FEF7F1FA39460DF10600FEF720FED1
:10402000064608B90D20C9E7394600F0BFFBBDF8C8
:1040300006303380314620460AF09BFE012130468F
:10404000FFF7AEFD2A463146204601F049FE024602
:1040500010B141F69A41DBE7144B9B68002BD3D09B
:1040600006F58D7130469847CEE7002BA5D1204646
:104070000AF0B3FDC0B120460AF030FD0028C3D0DD
:1040800020460AF0D7FB054620460AF0D6FB01463B
:10409000002899D1002DB7D02888FEF76BFE0028A4
:1040A000B2D041F6BC41B3E7422087E700180020B8
:1040B0000278034672B1427862B142881A2A09D95D
:1040C00082881A2A06D9044A006810609B88938067
:1040D0000020704712207047241C0020024B026809
:1040E0009A600020704700BF241C00200378A3F1D1
:1040F0000A02112A9DBF024A002013741220704741
:10410000241C002008B5094B01221A7002F0D2FBD2
:104110000AF0EEFF09F0F4FCFFF790FB002008F036
:10412000A1FEBDE8084000F0D1BC00BF0C18002083
:1041300010B5064C0649201D09F0BCFA04F1080030
:104140000449BDE8104009F0B5BA00BF0C180020C2
:10415000140500201C05002010B5084C0849201D3E
:1041600009F0A8FA04F10800064909F0A3FA04F1DD
:104170000C000549BDE8104009F09CBA0C1800205D
:10418000240500202C05002034050020014B187860
:10419000704700BF0C18002010B5064C00F072FCF0
:1041A000606809F07FFAFFF7EFFC00F039FE0123A9
:1041B000237410BD0C180020014B187C704700BF01
:1041C0000C18002010B5064CA06809F06BFAE068E6
:1041D00009F068FAFFF7B0FC0023237410BD00BF9C
:1041E0000C180020004870471D1800200048704738
:1041F0001F190020C208044900F007000123834072
:10420000885C03438B547047D0040020014BD3E9F2
:1042100000017047D0040020034B1868C0F3002051
:10422000400040F001007047D004002008B505F0C0
:1042300077F9084A002332F82310814205D302EBB4
:1042400083029378044A137008BD01330C2BF2D11A
:104250000023F7E732DF0800211A002010B5446878
:104260002388A4F8683194F8683084F86711012B2A
:1042700006D0022B04D040F287310620FEF7BCF9AD
:1042800084F86A3194F86930012B01D0022BF2D105
:1042900084F86B31044904F5AF7009F0B4FE0023D3
:1042A00084F8243110BD00BF41D7000040680849A0
:1042B0000388A0F85A3190F8603080F85C3190F8AB
:1042C000613080F85D3100F2511009F096BE00BFF8
:1042D00057D70000024B002283F822209A847047AF
:1042E000221A0020044B93F82220012A1ABF0360EF
:1042F00001200020704700BF221A0020054B93F8D0
:104300002210012902461DBF012083F822009A8451
:1043100000207047221A0020054B024693F8220025
:1043200020B1136009B19B8C0B800120704700BF46
:10433000221A0020044B93F8220000229A8410B124
:1043400083F8222001207047221A0020034B93F8A3
:104350002200B0FA80F04009704700BF221A002006
:1043600050B90A4A1346012003F8010B0868C2F845
:1043700001008A889A807047012805D1034B0A689A
:104380009A608A88D8719A81704700BF481A0020C5
:1043900050B90B4B187888B1D3F80120B3F8053029
:1043A0000A608B8001207047012806D1044BD87920
:1043B00020B19A680A609B89F3E70020704700BF2C
:1043C000481A002010B9044B18787047012806BF1E
:1043D000014BD87900207047481A0020F7B5002318
:1043E0008A888DF80600ADF8042008680B4A8DF81D
:1043F0000730019D1478014602F5A872D8B28442B4
:1044000001D8082008E052F8087F5668AE4208BF7D
:104410008F4203F10103F1D103B0F0BD581A00201F
:1044200030B5094B01465C78002203F20113D0B28B
:10443000844201D8082005E013F8015F8D4202F1A3
:104440000102F4D130BD00BF581A0020F0B5254D4F
:1044500095F8984189B0224605F29911684607F00F
:1044600055FD2146684609F06CFB0446B8B300EBE5
:104470004001C9B202A8FEF7FFF9631E95F8A161D9
:10448000DBB2012495F8981105E0721CB2FBF1F043
:1044900001FB1022D6B206F120020DEB020010F84B
:1044A000202C002AF1D103EB43012031694406EBB3
:1044B00046022A4411F8187C82F8A27111F8177C80
:1044C00011F8161C82F8A37182F8A41100F8204C90
:1044D000013BAA19DBB2FF2B82F89941D2D109B076
:1044E000F0BD00BF581A002070B5064688B00C46D3
:1044F000002A4ED0294A92F8A131D01890F899118B
:1045000019B9FF212820FEF777F803EB4301114486
:10451000013391F8A251E57091F8A35191F8A411DB
:1045200061710021257180F8991192F89811B3FBFF
:10453000F1F001FB103382F8A13192F8C23123B9B6
:10454000174902F5DD7009F05BFD657905F03F055F
:1045500045F0400565710D220021684607F096FC84
:10456000E3788DF80F3023798DF80E3004AA0423F8
:10457000694630468DF80D5007F0E6FA9DF81F3079
:1045800023709DF81E3063709DF81D30A37008B035
:1045900070BD03216018FEF76FF9D6E7581A0020A6
:1045A0004D440000044B5A78824286BF1B1893F892
:1045B0004A010020704700BF581A0020044B5A7867
:1045C000824286BF1B1893F842010020704700BF4B
:1045D000581A0020064B00224FF461711A8083F8AC
:1045E000C32183F8C421A3F8C61183F8C221704700
:1045F000581A0020014BB3F8C6017047581A002022
:1046000030B50A4B5C7884420ED9184490F8020108
:104610002B3003EBC004A5790D7053F83000106007
:10462000A3889380012030BD0020FCE7581A0020A9
:104630000246074810B590F8C34124B1417821B132
:10464000023003F0D9F9204610BD0C46FBE700BF4D
:10465000581A00202DE9F74F2F4C9A466378834271
:104660008046894656D9231893F8425185F00105B2
:10467000F9B193F84A31E3B945F002070135BAF1CF
:10468000000F18D1FA070AD5062101FB084104EBF7
:104690000810524601F585718230FFF725FFBB07F0
:1046A00034D504EB0810524649460230FFF71CFF90
:1046B0002CE02F46E3E794F8A1614FF0010B002DA9
:1046C000E0D0A319019393F8991199B90092DAB146
:1046D00000F076FB06EB46012144019B81F8A20124
:1046E0004FEA102C009A81F8A3C1000C81F8A401B4
:1046F00083F899B194F898310136B6FBF3F103FBD6
:104700001166F6B2013DDAE747F00407384603B018
:10471000BDE8F08F0027F9E7581A0020074B5A78B8
:10472000824209D91A1892F842212AB9062202FBBC
:10473000003000F58570704700207047581A00203F
:10474000064B5A78824281BF1B1893F83A01B0FA9F
:1047500080F0400998BF0020704700BF581A002021
:1047600030B500248487B0F8404042F210754C43C5
:10477000B4FBF2F4A0F84040541E05FB0343B3FB26
:10478000F2F3C387084BB3FBF2F30133A0F84430D4
:10479000038F05FB0344036BB4FBF2F459434463FA
:1047A000B1FBF2F1016330BD005A620270B50446FC
:1047B0000D4641BB4FF4227207F068FB012384F8D9
:1047C0008D306FF0360384F8D530042384F8D6306A
:1047D0006FF03B0384F8D7306F2384F8D8306FF044
:1047E0003C0384F8D9306FF07F0384F8DB302B234F
:1047F00084F8D430FE2384F80E317F2384F8DA5015
:1048000084F8833070BD012923D10023A0F8B4318E
:1048100080F8AB31826940F6B833A0F8B030114669
:10482000438C7830FFF79CFF104B1B68062B01D0A0
:1048300001330CD10E4B1B68063B083307D9E069E6
:10484000FFF728F918B9012384F89F31DAE700232C
:10485000FAE70229D6D1B0F86A32D0F86422816929
:10486000BDE870407830FFF77BBF00BF68200020B4
:104870006C200020034B80F870101B680BB100887F
:10488000184770473C0500200B2808B504D940F2B2
:10489000C7112920FDF7B0FE014B33F8100008BD09
:1048A00062DF08000346084671B13F2B0BD8074A68
:1048B000D35C03F07F02914205D08CBF0120002021
:1048C00000EAD31070470120704700BF7ADF08006C
:1048D0002DE9F7430E4669461546994609F052F907
:1048E000044620B9019F35B9012387F88C30012097
:1048F00003B0BDE8F083D7F810802946404608F0A1
:10490000F4F801460028F3D0134B5B88AB4221D367
:10491000404608F029FA97F88C30A0F80140002BA7
:1049200018BF0226494600F8036B2A4607F0EEFA44
:104930002946404608F014F918B98A212B20FDF7C2
:104940005BFE684608F084FC019BA3F8A24187F84F
:104950008C40CCE72046CBE7241C002083230B703F
:10496000014B1B78CB7070473C1C00202DE9F84FA1
:10497000D0F80480D8F8146030460D4608F0E6F907
:10498000044620B940F24B111020FDF735FE0146D8
:10499000304608F0E9F9B4F800B01FFA8BF9824606
:1049A000B9F1000F02D140F24F11EDE71E4B1B6829
:1049B000C71C8BB9B8F80030AB8000236B72A5F828
:1049C00006B09AF8003003F00303012B0FD0022B3E
:1049D0000DD040F26911D7E7B8F800004A463946D1
:1049E000984704460028E5D12046BDE8F88F2B7291
:1049F000304608F0BFF9044610B94FF4B971C3E767
:104A0000B9F1FB0F02D940F28111BDE7286810B956
:104A10004FF4C171B8E74A46394607F077FA304695
:104A200008F003F9E0E700BF4005002038B5134C5B
:104A300010220021201D07F029FA012525741022DB
:104A400004F10803002104F11400C4E9013307F064
:104A50001DFA84F8205004F11803C4E90533084A0C
:104A600000236362A36284F82C30C4F82D30C4F8AC
:104A7000313084F835301360A36338BD3C1C00200E
:104A80004005002010B5084C2378FF2B04D04FF4CC
:104A9000C6711020FDF7B0FD07F09CF82070BDE84E
:104AA0001040FFF7C3BF00BFDD04002010B5034C6A
:104AB000207807F0A9F8FF23237010BDDD04002043
:104AC000014B187807F0B0B8DD040020014B024A12
:104AD0001A607047440500206D4900002DE9F3413C
:104AE000DFF86881054608F11407D8F80830D8F8CF
:104AF0001840227A012A22D1D8F8382052B1137AEC
:104B00001BB9BB211020FDF777FDD8F83840C4B998
:104B1000002083E01A7A012AFAD04D4A1C46EFF3AE
:104B2000108172B650680068506001B962B6A34245
:104B300008BFC8F83840237A1BB9EA21E2E73A46B1
:104B4000EDE7267AF6B205232372731E0B2B6ED87F
:104B5000DFE803F06A062235676D3E6D6D6D6D5BB3
:104B6000636813B940F2FF11CCE720462946984705
:104B70000420EFF3108272B6237A052BD9B24FF0DE
:104B8000000359D12372D8F83810A14201D1C8F8D6
:104B90003830B2BB62B634E0636813B94FF40271C7
:104BA000B0E72946204698470346C3F30723012B65
:104BB000ADF80400C0B22FD0022BDAD11AE063683E
:104BC00013B94FF404719DE7204698470020D0E7C1
:104BD00063680BB9FC2195E70B222A700122198822
:104BE000AA706A7100221869A5F80310AA7108F06A
:104BF0001CF80420D8F83830A34202D10023C8F8AA
:104C0000383000283FF471AF08E0124B29461B688A
:104C100020469847034668B9267298B102B0BDE8AD
:104C2000F08140F247216DE740F24A216AE740F205
:104C30004D2167E70220DDE711B940F26E2161E7FF
:104C40001846A6E7002B7FF450AF61E73C1C00201C
:104C5000401C00204405002010B51346027A22B102
:104C600040F2F5211020FDF7C7FC0A46BDE81040D0
:104C70000146014809F0A1B9401C0020044890F801
:104C80002C301BB90349243009F0B4B9704700BF78
:104C90003C1C0020ADDF00000346064890F83C2095
:104CA0003AB190F8352022B900F82D3B024909F0BD
:104CB000A1B970473C1C00205D49000010B50A46B0
:104CC000037A23B140F2FD211020FDF795FC014647
:104CD000BDE810400148072309F06FB9501C0020BF
:104CE0001346027A0AB1037270470A460146014828
:104CF00009F063B9401C00201B234FF01B12838472
:104D0000038482618382C260038539B94FF4A4733E
:104D1000034AC3844384C261C3820261704700BFF7
:104D2000480148010346F0B4B3F85420B3F84840B2
:104D3000B3F84460DF8FB3F84250944228BF144662
:104D40000846B3F84C20B3F85610DC878A4228BFD7
:104D50000A46B3F84610A3F84220914238BF1146E4
:104D6000A64238BF2646A742A3F84460A3F84610DF
:104D70001FD1AA1A18BF0122B3F84A50B3F8504005
:104D8000B3F852709E8FB3F84010A54228BF254655
:104D9000B3F84E409D87BC4228BF3C46AE42A3F8C4
:104DA000404002D1A14200D12AB1F0BC034909F030
:104DB0002AB90122E0E7F0BC704700BF0DE0000017
:104DC000094AD2E90003434083EAB01181EA432152
:104DD0004FEAF3435360054B116058434FEAF060CC
:104DE00000EB8000704700BF7C1C0020BB79379E21
:104DF000094AD2E90003434083EAB01181EA432122
:104E00004FEAF3435360054B116058434FEAF0609B
:104E100000EB8000704700BFE0040020BB79379EA4
:104E200010B50A4C09480821FDF726FDD4E90032E7
:104E30001343F7D0064CFFF7DBFF2060FFF7D8FFE6
:104E4000236860601843F6D010BD00BFE004002066
:104E50007C1C0020174B184A9A60184A5A60184A5E
:104E60001A60184A9A62184ADA62184ADA60184ACE
:104E70009A61184A1A63184A1A62184ADA64184A78
:104E80009A64184A5A62184B184A9A60184A5A6229
:104E9000184ADA62184A1A61184A5A61184A9A611D
:104EA000184A1A63184A9A64184ADA64184A9A63C4
:104EB000704700BF480500206DE200009DE2000041
:104EC00009E30000BBE300000FE40000E151000033
:104ED00025E4000045540000CD520000F3E400003A
:104EE0000FE50000195300004806002089E2000089
:104EF000C5E4000047E40000EBE300006BE40000C1
:104F00006D52000095E500003DE500002FE5000032
:104F1000ABE40000054B064A9A65064A1A66064B42
:104F2000064A9A65064ADA65704700BF48050020C0
:104F300073D8000015D9000048060020BFD7000034
:104F4000E1DA0000023A08B5232A00F29980DFE88E
:104F500002F012971E9A9A2E9730979A35404497EE
:104F600097489A9A5C5C73739797979797979797D8
:104F70009797977A879002784368012A02D193F82D
:104F8000103101E093F819314B7002200EE04268B5
:104F9000D2F8BE31C1F80130D2F8C231C1F80530C3
:104FA0004368D3F80431C1F809300D2008BD4368C7
:104FB000E5E700F00DFA0028F8D147E059228A70A1
:104FC00000221023CA707F224B700A714B71062099
:104FD000ECE7436893F80A31D6E7084600F0E6F9B3
:104FE000E9E70278436852B993F810213AB193F88F
:104FF0000D214A7093F80C318B700320D6E793F89B
:105000000B214A7093F80A31F6E74368B3F854204D
:105010004A70120A8A70B3F81221CA70120A0A7111
:10502000B3F850204A71120A8A71B3F81031CB716B
:105030001B0A0B720920B9E7436893F826214A70CE
:1050400093F82731D8E7114B1B6823B940F2F2419E
:105050005120FDF7D1FA0246232098470420A5E706
:105060000A4B1B68002BF1D00246242098470520EC
:105070009CE7064B1B68002BE8D002462520F5E78D
:1050800040F2ED41E4E7012090E700BF480700202F
:105090003F289ABF024B53F820000020704700BF02
:1050A000480500203F289ABF024B53F820000020FB
:1050B000704700BF48060020F7B545682E690446D2
:1050C0004FF6FF770DF102010DF101023046ADF808
:1050D000027007F060FD01A9304607F081FD40B184
:1050E000019807F045FE616800220272FFF7E6FDB5
:1050F000E8E7044905F19E0003B0BDE8F04008F080
:105100007CBF00BF01E20000F0B5044685B00D464B
:10511000FF2600F8A56C10F8A63CF3B1184F3B78B9
:105120001BB148211F20FDF767FA0C21381DFDF740
:10513000A3FB3E70002304F8A53C2A46072302F88F
:10514000033BD4F80930C5F80330D4F80D30536070
:10515000D4F81130936005B0F0BD01A80C21FDF723
:105160008BFBA4F51B73039AC3F8042101AB03CB9B
:1051700044F8AE0C44F8AA1C04F8A66CDAE700BFA9
:10518000841C002010B5054C23782BB90C21201D60
:10519000FDF772FBFF23237010BD00BF841C0020AD
:1051A000024690F8C631BBB990F8C73103F0FF0151
:1051B0000BB100207047094B18780028F9D01970FE
:1051C000D968C2F80411043303CBC2F8BE01C2F897
:1051D000C211FF2382F8C63101207047841C0020D1
:1051E00038B5426892F8863004460D463BB1132B21
:1051F00005D0113B0B2B8CBF0120082038BD92F845
:10520000C43013B9204608F0B8FF6268D5F80B30F7
:10521000C2F8B631D5F80F30C2F8BA316368D5F8A4
:105220001320C3F800211A88A3F87522D5F80120AD
:10523000C3F87722D5F80520C3F87B226368B5F858
:105240000920A3F87F226368002583F8C6516068AF
:10525000054900F51B7008F0CDFE6368152283F840
:1052600086202846CAE700BF0951000038B54368C8
:1052700093F886201C2A044604D040F2D9111F203E
:10528000FDF7BAF993F8C4101D88002283F8C320F3
:1052900003F5C97069B10B4983F8C420A3F89C5188
:1052A00083F89B2108F0A6FE6368002283F886201D
:1052B00038BD012283F89B11A3F89C51024983F861
:1052C0009E21EFE7A7E3000099E3000038B54568A9
:1052D000AB6F13F0010419D1D1F801200C4BD1F8B8
:1052E000051013400B4AC5F8D430C3F3076343F0ED
:1052F00008030A4085F8D730C5F8D82008F03DFFEC
:10530000AB6F43F00103AB67204638BD0120FCE7DB
:105310002FC904F76FDB008010B5406890F8853026
:10532000042B2CD1D1F80130D1F80540C0F8D4308D
:10533000C3F3076343F0080380F8D73000234A1C07
:10534000C0F8D84080F8BE3080F8853090F87431CD
:1053500003F0FF040BB1002010BD0388A0F87631E4
:1053600080F87541D1F80130C0F878315368C0F841
:105370007C31044900F5B67008F03CFEEBE70120F3
:10538000EAE700BF89E40000406890F8743153B93F
:105390000388A0F876311A2380F87531024900F5A8
:1053A000B67008F027BE704789E4000010B50446C7
:1053B000FEF72CFF044A054B02400B40C4F80120C5
:1053C000C4F80530092010BD2FC904F76FDB008039
:1053D00037B50C464568FEF719FF0A4A0A4B0A40E2
:1053E00095F8D4100192034000930B408DF80030E3
:1053F0006B4603CBC4F801000920C4F8051003B0C4
:1054000030BD00BF6FDB00802FC904F738B5DB0467
:10541000154604D5C37C13B10023036338BD046B68
:105420000134046309F097F8436B9C42F6D30023E0
:10543000036303492846BDE8384008F0E4BD00BFD7
:10544000E5E4000038B5446894F88530012B054642
:1054500002D0A36F98073AD494F8C5309A0713D4B2
:105460004A7884F8CF204A88A4F8D0208A88A4F803
:10547000D220D80743F0020284F8C5200FD5154981
:1054800004F1C60008F0BFFD94F8C530D90711D467
:10549000A36F9A0708D557214020FDF7ADF894F87F
:1054A0002A31002BEBD1EFE743F00203A367284634
:1054B00008F063FE94F88530012B4FF0000301D013
:1054C000002038BD84F8853084F8BE30F8E701202C
:1054D000F7E700BF77E5000070B54568044602F0C5
:1054E00047FA054B85F883001B6801461BB120462F
:1054F000BDE87040184770BD50070020024B1B6884
:1055000003B11847704700BF4C070020F0B51F4D8E
:105510002B78002414709BB1013B6D68DBB21E1B1D
:10552000012E0FDC05EBC40655F8347076688E4208
:1055300008BF874227D0B84271EB060612D214701A
:105540000020F0BD1E19771005EBC70E55F837C0C7
:10555000DEF804708445C6F347068F412CBF3346FE
:105560003446DCE705EBC30455F8335064688C42DD
:1055700008BF854206D0A84271EB040428BF01335E
:105580001370DDE71C4614700120DAE7A41C00202C
:1055900010F0070208B503D063214820FDF72CF86E
:1055A00018B1034B197258601A70C80008BD00BFCB
:1055B000A41C0020014B00221A707047A41C00207C
:1055C0000A46822302F8033B04480368C1F803300B
:1055D0004368536083689360704700BFAD1C002030
:1055E00002481622002106F051BC00BFAD1C00206D
:1055F00082B002AB03E903000B48437D93B153062D
:1056000010D50A880280D1F84022B1F87E3042607D
:10561000D1F8442205498260438002220C3002B056
:10562000FFF75EBB02B07047AD1C0020C155000003
:10563000094B53F8203070B503F523430C4616464A
:10564000A1334FF47A72B3FBF2F503F0F3F834446C
:105650002C44204470BD00BF78E008002DE9F04FD5
:105660008DB09A4690F869300293044689460692B6
:1056700008F064F8834694F87300FFF705F9834453
:1056800008F0C0FF94F886300393069B1FFA8BFB4B
:1056900000F1500783BB94F88430032B2CD1039B7B
:1056A0000D2B29D1B4F85C324B4525D1D4F8E0312B
:1056B000C4F8D031A369B4F8B421C4F8D431B4F833
:1056C00052321344C4F8D831204602F00FF9D4E91D
:1056D0009823A262B4F85E22A285D4F868222262DE
:1056E00041F64B529342A3618CBF0023012384F8FF
:1056F0007230022384F88430B4F85052B4F87E80BB
:10570000A9EB05052DB204F50873A9EB0808002DD7
:1057100004930FFA88F818DAD4E98E23C4E99223A7
:10572000012345460493CB4B1B7813B103F0ECFEE9
:1057300070B9002694F88430032B00F2E081DFE892
:1057400013F06C006901BD008D01CDF810A0EAE7EF
:10575000B4F8C831012BECD994F88430022BE8D08E
:1057600094F8F261002EE4D194F87300FFF78CF8FE
:1057700094F8843000F5C86B012B1FFA8BFBD9B26B
:105780003ED194F88920A36A032A32D1D4F8D421D7
:1057900013445946D4F8D401079303F079FED4F8A2
:1057A000D061079BD4F8D821C4F8D001861B594694
:1057B0001846564303F06CFED4F8DC31C4F8DC0123
:1057C000C31A5946A0691E4403F062FEB4F8B4310E
:1057D000D4F8D82143445B1B9B1AD4F8E021013B49
:1057E000821A02FB03660123C4F8E00184F8F23157
:1057F000A0E73046079308F026FA079B0344C8E762
:10580000A069594603F044FEB4F8B461D4F8E0311D
:105810004644761BC31A5E43E5E70121002008F0E9
:1058200012FA8046A06A5946404403F031FE5946B8
:10583000C4F8DC01A06903F02BFE09A9C4F8E0015B
:105840000AA802F0E1FE099B0093D4E99201DDE988
:105850000A2303F0EFFE0290204608F0EBFEA16A57
:10586000D4F8542294F869008D1802F0EBFFD4F8B4
:10587000DC11029B203D6D1AED1B454400F52340D1
:10588000ED1AA1304FF47A73B0FBF3F0A38D3031F1
:105890002D1A03EB410194F869003A46FFF7C8FE60
:1058A000D4F85432EB1A2230B3F5917FC4F8E401F6
:1058B00059D240F2C6413020FCF79EFEA36AD4F8CC
:1058C000D4015946184403F0E3FD5946C4F8DC01FD
:1058D000A06903F0DDFDC4F8E001204608F0AAFE4F
:1058E000A36AD4F8D4511D44B4F8B431002B40F06D
:1058F0008D80BAF1000F00F0898094F8690002F001
:10590000A1FFD4F8DC11D4F8403294F869206D1A64
:10591000203D1D44D4E98EBC4F4B53F82220A5EB0B
:105920000B054FF47A7302F2E732B2FBF3F215443F
:10593000ED1B00F52340A130B0FBF3F02D1AD4F895
:10594000D821D4F8D03194F8690002FB0313A18D5B
:10595000303301EB43013A46FFF76AFE0123C4F8F6
:10596000E40184F88430A369D4F8E021E73B9B1A72
:10597000DF1B002384F82032D4E992328742A5EB62
:10598000060528BF07465B1942F10002C4E98C32C4
:10599000C4F8B07104F1300008F060FB042384F80F
:1059A0002932D4E98C23C4E99223B4F8A031A4F8B5
:1059B0005092A3EB09031BB2002BD4BF002201229B
:1059C000520084F82822039A38440D2AC4F824028D
:1059D00000F09880BAF1000F40F0978094F884307E
:1059E000002B00F0AF80A169D4F8E03104F5087015
:1059F000C91A08F0D4F880B2002800F0A380169BE2
:105A000003B1188001200DB0BDE8F08FD4F8DC118F
:105A10006D1A94E7D4F8E011A369B4F8B421D4F86E
:105A2000D801D4F8D0C15B1A5D43D4F8DC314244CC
:105A3000121A3033013A0CFB003301FB0233A18D03
:105A400094F869003A4601EB4301FFF7F1FDC4F811
:105A5000E40188E7D01C002078E00800D4F8E0E1F9
:105A6000A369A3EB0E035D4394F88530252B03D087
:105A700094F88630252B0CD1B4F85C32A9EB0303E3
:105A80001B0406D4029A94F85F32002B18BF1A4602
:105A90000292049BB4F8B4C143B3BCF1000F25D10A
:105AA000D4E99023D4E98E01904271EB030302D331
:105AB00040F21A51FFE694F869102C4B53F821304C
:105AC000D4E98E01CDE904010498203A121A03F2B8
:105AD000E7314FF47A7B03F52343B1FBFBF10A4432
:105AE000A133B3FBFBF3D21AD21B15440CEB080114
:105AF0000EFB01F1303102983A464900A5E740F229
:105B00003251D8E6BAF1000F1CD0B4F8C80118B36E
:105B1000B4F8CA1194F8CC21A4F8CA1101FB0222EE
:105B2000904201F101050DDD002B0BDD002384F80F
:105B30002832A4F8CA51FFF743F900F007000130FA
:105B400084F8CC0104F5087104F5FC7004F0E8FE5B
:105B500020B940F27C51AEE60146DBE7069B83F0BC
:105B6000010384F8F03100204DE700BF78E0080021
:105B70002DE9F8430E46044618B9D4213020FCF72D
:105B80003BFD052900F2A780DFE801F00376413DE7
:105B9000A52E03F0A5FEC4E94601204600F0BCFF97
:105BA000D4F80C01CB3803F03DFD204609F0DDF8B8
:105BB000054600BB0146204609F014F800F1E50651
:105BC000D4F80C01B04209D2301A322838BF322042
:105BD000032103F055FE60B103F028FDC4F80C6109
:105BE000204609F0D2F845B12046BDE8F84309F057
:105BF000CDB80125F2E70025F2E7D4E94623C4E950
:105C00004023BDE8F883BDE8F84302F009BD08F081
:105C1000F4FF042384F811318146884603F000FD27
:105C200007220F46A9FB023102FB0811D4E94052BA
:105C30005B1941EB0205D4F8E8203AB159EA0802B1
:105C400004D0984277EB050228BF012684F8106142
:105C5000D4E94826121A66EB070694F8301139B9D0
:105C6000012A76F100010BDA204600F05DFF03E027
:105C7000012A76F10006F7DB002384F82831C0E71B
:105C8000984277EB05010FD259EA08080CD01B1A8D
:105C900065EB07019A4276EB010005DB012B71F100
:105CA0000000A4BF1A460E460C490123914284F815
:105CB00029314FF0000384F80831B341B8BF0A46D8
:105CC00004F1C00004F5847104F0F6FE002898D1B8
:105CD00040F2B96152E7F02150E700BF0040420FA7
:105CE0002DE9F84304460E46154690F8283103F096
:105CF000FF07002B40F0948000F1C008394678225D
:105D0000404606F0C3F847492246404604F002FEEA
:105D1000C4F8E860FF2384F8283166B1FFF768F81B
:105D200000F00700013086F8CC013F49324606F505
:105D3000FC7004F0EFFD40F202434FF00009A4F8BC
:105D4000103184F8089103F0F5FB00F19E0620461F
:105D500009F00BF8B6B20146C0B307F0EFFC00F54E
:105D6000CD6189B2284603F093FB2844C4F80C01A6
:105D700003F056FC301841F10001C4E9460101204E
:105D800084F8EC00A4F81E9009F0A2F8E53D2D1A65
:105D9000C4F8F0504FF0FF356FF00041D4E94623CE
:105DA000C4E948510025C4E93E23C4E9402384F8EE
:105DB000295142F2107204F58471404604F07CFED1
:105DC00038BB4FF4DD713020FCF716FC204608F09C
:105DD00009FFDFF85890E530C4F80C01B9F802006B
:105DE00048B1E08B38B1FFF703F8B9F80230B0FBE7
:105DF000F3F202FB1300064403F012FC361841F1E3
:105E00000001C4E94661002DC4D0AD1941F1000183
:105E1000C4E72946204608F0BBFF3846BDE8F883B2
:105E20000C27FAE7715B00004FE60000D01C002051
:105E3000F0B5002385B0CDE9003301238DF806309D
:105E40006846FCF7BBFF70B1114E0123337100238C
:105E5000CDE9023302A8FCF7B1FF044638B10023B4
:105E6000337105B0F0BD009808F0E7FCE8E7029D4B
:105E700095F88430002BEDD005F5FC77384604F01A
:105E8000C3FD384604F0FEFD85F88440E2E700BF1C
:105E9000D01C0020054B002201215A7119701A7183
:105EA00042F210725A80FFF7C3BF00BFD01C00201F
:105EB000014B5871704700BFD01C002008B502F09C
:105EC000B7F8044B9A6882422ABF1879002080F004
:105ED000010008BDD01C00202DE9F3470446062927
:105EE00000F2DA80DFE801F0048673838A8FD30042
:105EF000D0E98E01D4E99023904271EB030354D290
:105F000094F8F231002B50D094F88430032B4CD10C
:105F100008F078FB94F869A0814607F00FFC06466C
:105F200094F87300FEF7B0FC064494F87300FEF793
:105F3000ABFCD4E98E23D4F84072D4F8B05180463B
:105F40005046BF1A02F076FC554A52F82A20A5F1B5
:105F5000500302F52342A1324FF47A71B2FBF1F201
:105F60009B1AA3EB09031B1A09F1790909EB5309E1
:105F7000B6B2603B08F5C86873431FFA88F8B3FBF4
:105F8000F8F360335A08A9EB53039F4202D39144BC
:105F90004F4501D903F0BEFAA069314603F078FA03
:105FA0000023C4F8E00184F8F2313E4B1B7903F082
:105FB000FF0263B90092B4F8A41101232046FFF751
:105FC0004DFB38B140F2D5613020FCF715FB0423BE
:105FD00084F8843002F006FA04F088FCB4F87E20DD
:105FE000A4F8EE210023A4F8523284F8F13102B073
:105FF000BDE8F087032380F88430F8E709F024F93E
:10600000C4E99001F3E790F86900264F08F002FB1D
:10601000B530D4F8E031A56995288CBF0020C0F1D7
:106020009600C218954288BFED1A7B798CBF2D1A55
:1060300000251BB9236B9D4228BF1D4604F130008B
:10604000D4F8B06108F00AF80644022003F0ECFB33
:10605000AD1B25EAE575854228BF05460221284685
:1060600003F00EFC10B103F0E1FA2E44012340F2DC
:1060700045123146204608F047F8D4F8B031B860F0
:10608000A069184402B0BDE8F04703F0CBBA02B0F3
:10609000BDE8F04708F0CEBA40F2A37194E700BF24
:1060A00078E00800D01C0020014B5880704700BFEA
:1060B000D01C0020074A03461068D3F84920C0F8D6
:1060C0000320B3F84D20A0F8072093F8481007F0FC
:1060D000B4BE00BFDC1C002070B504460E466588C7
:1060E000807D15F00401134618BF04F157013246B4
:1060F000FEF7B0FA4107054621D4C2070BD50123AC
:1061000084F84830A07DFEF709FB0368C4F84930E5
:106110008388A4F84D30AB0701D4012070BD094B32
:106120001868D4F85730012184F85610C0F80930A7
:10613000B4F85B30A0F80D3007F088FEEDE70020E2
:10614000ECE700BFDC1C002038B5C38C0F4D0133D9
:10615000C3F30E03C3842B7C04462BB102F012FA66
:1061600001F07CFC00232B7400232B7194F8693020
:106170002BB101212046BDE8384008F02DBC637CDE
:1061800013B1E28C9A42F4D20021F3E7DC1C002028
:1061900010B5074C2379012B05D1237C1BB102F0EC
:1061A000F1F901F05BFCA069BDE81040FFF7CCBF3E
:1061B000DC1C002070B5254C2379012B04D040F65F
:1061C00074412D20FCF718FA98B90125237C1BB1E6
:1061D00002F0D8F901F042FC002D36D0A06908F099
:1061E00047FB68B302F0ACF8E369BDE870409B6818
:1061F00018472168A26911F8095B02F14903E8090F
:1062000092F8482007F07FFC0028DED020680021AB
:1062100007F041FE0028D8D02379A069012B02D0D5
:1062200040F64E41CDE72379E26903F1804352699C
:10623000013B05F00F0152F8233098470546C5E7AA
:10624000A069BDE87040FFF77FBF70BDDC1C002077
:10625000074A0346906903B909B9FFF775BF137977
:10626000D26903F180431269023B52F82330184788
:10627000DC1C00202DE9F043032985B005461746B4
:1062800007D14388980723D40024204605B0BDE8F1
:10629000F083428890F86830D107DBB2F4D5002B48
:1062A000F2D14FF00108DFF8D49099F81060C6B130
:1062B00007F05EFC0828387016D002AA0DF107011D
:1062C000FEF79EF938B940F6E9612D20FCF794F904
:1062D0004FF00208E7E79DF8070002A908F088F9E7
:1062E00006463B78082B08D1D9F8001011F8030BAB
:1062F000C0F3801008F07CF90646D9F8001095F834
:106300004F2011F8030B05F15003C0F3801007F084
:10631000FAFBD9F80010044611F8030BC0F3801003
:1063200007F01CFC8146FEF70BFA40B1B9F1080FEB
:106330001BD04846FEF736F980F00103D8B23A7810
:10634000082A14D01CB9AC7DA21A544254416A8860
:1063500053079AD4002897D176B9EC7C444518BFEE
:10636000002C0CBF012400248FE70020E7E780F019
:1063700001022240D4B2EAE7344686E7DC1C002062
:106380002DE9F04F85B008230DF1070205210446E1
:106390008DF80730FFF76EFF064620B9002630461D
:1063A00005B0BDE8F08F734F39687A7C11F8030BA4
:1063B00007F11203C0F3801007F0A5FB8046002808
:1063C000ECD13B68A169184691F88D2010F8035B69
:1063D00002EA551202F0010281F88D20D3F8032061
:1063E000C1F803208288A1F807201D46A26915F88C
:1063F0001F1BC1F380119170D3F81F00029002A9F6
:1064000028790871D3F80F00D061587D1D7D0004F4
:1064100040EA0520DD7C28435062B3F8190082F879
:10642000728040F2E24909FB00F090619D7DC5EB6E
:10643000451005EB800505EB85056D009585B3F8E6
:10644000170009FB00F09062B3F81B001084B3F84A
:106450001D00508493F8243003F01F005B0982F87C
:10646000990082F87330A56994F912A005F18D00A6
:1064700007F03FFC40F20113A5F868304FF0FF0B26
:1064800085F86AB0414605F13000FEF735FC51460B
:106490002846FEF7EFF9A36984F873801A88A4F8F8
:1064A000742084F891B04FF6FF72A4F892209A6994
:1064B000B2FBF9F2A4F88A201A8CA4F88C205A8C2A
:1064C000A4F88E2093F8732084F89020627D9DF8C4
:1064D000070004F17E015AB394F84820012A27D11D
:1064E00094F84E2002F0C002402A21D1D4F849206D
:1064F000C4F87E20B4F84D208A809A7884F87720FA
:10650000082803F1030504F18401D3F8033004F1F2
:10651000780227D0C4F88430AB888B8004F17701EF
:10652000FEF76EF840B940F6D4312D20FCF764F840
:106530000022C4F87E20DFE794F8773043F00203AE
:1065400084F8773004F16A000B4907F053FD0B4BD8
:10655000A0691B6800223A71002B3FF420AF21464E
:1065600098471CE7A367AB8893800023C4F8843066
:106570008B80E7E7DC1C002001EB000058070020BF
:10658000032937B5044604D0052953D0012003B0B0
:1065900030BD08230DF107028DF80730FFF76AFEC2
:1065A0000028F3D0237C284D03B39DF8070094F80E
:1065B000B630DBB9237884F8B730082804F1B90283
:1065C00029D004F1B801FEF71BF820B940F662713A
:1065D0002D20FCF711F894F8B83043F0020384F84A
:1065E000B8301A4904F1AE0007F004FD2B6804220C
:1065F0001A7006225A702046FFF75CFD286894F84E
:106600003820616B07F038FC032328682B7101F0F8
:1066100037FF0020BBE72868034613F8031BC1F3CC
:10662000801184F8B810D0F80310C4F8B9109B8812
:106630009380D6E7064B1B68002BEAD0984780F082
:106640000100C0B2A3E700BFDC1C0020E9EA0000A3
:1066500054070020F8B504460F4619B300F1200591
:10666000284608F00EFCA0B963881A072ED52846E4
:1066700008F01EFC0646284608F003FC301AC0B29B
:1066800008F026FC474A936803442846936008F0C4
:10669000D4FB284608F0D6FB01F0CEFD2179252059
:1066A00001F0EAFC3F4E94F8562030680023037056
:1066B00043706388103B0D2B64D8DFE803F05F6301
:1066C0005B0C634063636363636363402046BDE8C0
:1066D000F840FFF739BD062343702023037020469E
:1066E000FFF7E8FC638823F008039BB2152B05D065
:1066F00094F83020E16A306807F0AFFB306801F0B1
:10670000BFFE022321793371002001F0A3FD05466D
:1067100007B9F06063881B0704D508F0D6FB054471
:10672000C4F8F4506388103B0D2B36D8DFE803F033
:1067300038352F2F352F353535353535352F0C2359
:1067400043700346212103F8091B52B1D4F85720A6
:10675000C0F80920B4F85B209A80012107F076FB8D
:10676000BDE7226DC0F80920B4F854209A8094F84F
:106770004F10F3E7062303704370B0E70223037062
:106780000623F9E740F24E612D20FBF735FF217912
:106790000120BDE8F84001F01BBF40F6E741F3E7F8
:1067A000F8BD00BFDC1C002038B54388102B044620
:1067B00004D1BDE838400121FFF74CBF0B4D2B7CC5
:1067C00023B101F031F9402001F0D0FE286801F03A
:1067D00057FE608810F0040002D1217901F0F8FE24
:1067E000002001F0A1FE01232B7138BDDC1C00202C
:1067F000024B01219869FFF72DBF00BFDC1C002070
:1068000010B5124C237C1BB101F0BCFE01F026F93F
:10681000A06908F02DF838B12379012B09D040F692
:1068200078312D20FBF7E8FEA069BDE81040FFF7A6
:106830008BBC2379E269A069D26803F18043013BF4
:10684000BDE8104052F82330184700BFDC1C002080
:1068500010B50748037903F0FF0433B91422214629
:10686000043005F013FB204610BD0C24FBE700BFED
:10687000DC1C002010B50A4C00232371FDF7B2FC8C
:106880002060FFF7E5FF20B140F2FD212D20FBF74E
:10689000B3FEE36913B94FF44071F7E710BD00BFD1
:1068A000DC1C0020014B024ADA617047DC1C00202E
:1068B000746B0000034B044A1A60044B044A1A60CC
:1068C000704700BF54070020816300005807002074
:1068D00089E90000F8B5057DAF1E0446FFB2002D22
:1068E0003AD0012F2DD800F1500190F84F0007F059
:1068F00035F90828064624D0FDF760FE10BB023D9E
:1069000018BF0125012F8CBF0027012784F84850AC
:106910006775A675FDF76EFE054602F081FE154B04
:106920000022E5FB0301C4E9100184F8562011465A
:106930002046FFF7D1FB70B94FF493612D20FBF790
:106940005BFE0826022D09D104F149010020FDF764
:106950001FFD60B90020F8BD0826F5E704F14901E4
:106960000120FDF715FD0028F4D00125CAE7002518
:10697000C8E700BF40420F00F0B5444E327985B001
:10698000044602F0FF0312B90278FF2A04D14FF443
:106990001D612D20FBF730FEB36080F869303C4B61
:1069A00000933C4B01933C4B0293F36968465B6850
:1069B000039301F05DFD01F0A1FB01F0E3FD01F0A7
:1069C0004DF8364801F02EFC04F12005344801F062
:1069D00049FD284608F031FA284608F033FA01F05C
:1069E0002BFC2179252001F047FB94F9120001F0DE
:1069F00013FC04F12C01A06A06F0D8FA04F134016A
:106A00000746A06A06F0F9FA0546DFB1237FCBB14D
:106A1000B4F92650ED43ED0F637D13B963885B072E
:106A200009D5D4E910126FF000439A4208BFB1F1C2
:106A3000FF3F0DD19DB930680330FDF7F9FD30748B
:106A400005B0F0BD002DE7D0657F002DE0D1E3E774
:106A500002F0E6FDD4E9102390429941EAD30122E5
:106A600029462046FFF738FB50B1FDF7C3FD054628
:106A700002F0D6FD0B4BE5FB0301C4E91001DAE798
:106A8000002DD8D040F60E2183E700BFDC1C00208B
:106A900001680000B561000051620000D6BE898E19
:106AA0005555550040420F0073B50446FFF764FF8B
:106AB00000212046FFF7CEFD236E0BB101221A60A4
:106AC0006388DB0721D50023114EA569CDE900338A
:106AD000FF2373746846FCF771F9B0B9009CA542B6
